:03000000020008F3
:03006E000200038A
:0300030002007187
:100071001200CE9006007401F0E4A3F09086A07502
:10008100F001E41200E6758200120FFF7582011281
:100091000FFF120680900B1CE4F0A3F0900B1EF0F2
:1000A100900B1FF0900B20F0900B21F0A3F07582C4
:1000B10008121CDCE5C120E6098508828509831246
:0D00C1000006121C32121B081210A780E767
:060061007508007509F4AA
:1000CE0075A15575A1AA53B3E043B30675B2D875A1
:1000DE00A1FF90000702060FAF82AE83ADF0FC9039
:1000EE000602EFF0EEA3F0EDA3F0ECA3F090060005
:1000FE00E0F5F0A3E045F0600C43C60143C40843AD
:10010E00C50C43CE10C29FD29EC29DD29C43878007
:10011E00900602E0FCA3E0FDA3E0FEA3E0FF900B3F
:10012E0031ECF0EDA3F0EEA3F0EFA3F0908D80751F
:10013E00F05BE4121DC1AC82AD830CBC00010DED71
:10014E00C313CC13CC740F55894420F58943C9A031
:10015E00C3E49CFC8C8DD28ED2992210980280FB27
:10016E0085998222E582900606F0E0F5993099FD98
:10017E00D29922E582900609F090060A74C4F074B2
:10018E0000A3F07440A3F090060D74BAF07400A3AF
:10019E00F07440A3F090061074BCF07400A3F074D9
:1001AE0040A3F090061374BEF07400A3F07440A345
:1001BE00F090061674C5F07400A3F07440A3F0908E
:1001CE00061974BBF07400A3F07440A3F090061CE3
:1001DE0074BDF07400A3F07440A3F090061F74BFBA
:1001EE00F07400A3F07440A3F0900608E0FF24F929
:1001FE00500122EF2F2F9002087302021D0202A05F
:10020E0002032502038002040202048802050C90F8
:10021E000609E0FFFE8EF005F07401800225E0D5A0
:10022E00F0FBF4ADC65DF5C6EF75F003A4FFAEF0BE
:10023E00240AF582EE3406F583E0FBA3E0FCA3E08E
:10024E00FD8B828C838DF0122960FA900607E0F9FF
:10025E0089F005F07401800225E0D5F0FBF4F95227
:10026E00028B828C838DF0EA121EB5EF2416F58276
:10027E00EE3406F583E0FDA3E0FEA3E0FF8D828E53
:10028E00838FF012296052018D828E838FF0E902E6
:10029E001EB5900609E0FFFE8EF005F07401800297
:1002AE0025E0D5F0FBF4ADC65DF5C6EF75F003A401
:1002BE00FFAEF0240AF582EE3406F583E0FBA3E0F0
:1002CE00FCA3E0FD8B828C838DF0122960FA9006E0
:1002DE0007E0F989F005F07401800225E0D5F0FB06
:1002EE00F9F4F8EA52008B828C838DF0E8121EB579
:1002FE00EF2416F582EE3406F583E0FDA3E0FEA3AF
:10030E00E0FF8D828E838FF012296042018D828EE6
:10031E00838FF0E9021EB5900609E0FFFE8EF00510
:10032E00F07401800225E0D5F0FBF4ADC65DF5C694
:10033E00EF75F003A4240AF582740635F0F583E018
:10034E00FDA3E0FEA3E0FF8D828E838FF012296065
:10035E00FC900607E0FB8BF005F07401800225E0AF
:10036E00D5F0FBF4FBEC42038D828E838FF0EB0213
:10037E001EB5900609E0FFFE8EF005F074018002B6
:10038E0025E0D5F0FBADC64DF5C6EF75F003A4FF25
:10039E00AEF0240AF582EE3406F583E0FBA3E0FC12
:1003AE00A3E0FD8B828C838DF0122960FA900607F4
:1003BE00E0F989F005F07401800225E0D5F0FBF438
:1003CE00F952028B828C838DF0EA121EB5EF241641
:1003DE00F582EE3406F583E0FDA3E0FEA3E0FF8D8B
:1003EE00828E838FF012296052018D828E838FF060
:1003FE00E9021EB5900609E0FFFE8EF005F07401CD
:10040E00800225E0D5F0FBADC64DF5C6EF75F003C5
:10041E00A4FFAEF0240AF582EE3406F583E0FBA3CA
:10042E00E0FCA3E0FD8B828C838DF0122960FA90A4
:10043E000607E0F989F005F07401800225E0D5F099
:10044E00FBF942028B828C838DF0EA121EB5EF24EB
:10045E0016F582EE3406F583E0FDA3E0FEA3E0FF81
:10046E008D828E838FF0122960FCE9F4F9EC520133
:10047E008D828E838FF0E9021EB5900609E0FFFE95
:10048E008EF005F07401800225E0D5F0FBADC64D6F
:10049E00F5C6EF75F003A4FFAEF0240AF582EE3434
:1004AE0006F583E0FBA3E0FCA3E0FD8B828C838D3D
:1004BE00F0122960FA900607E0F989F005F0740150
:1004CE00800225E0D5F0FBF9F4F8EA52008B828C1D
:1004DE00838DF0E8121EB5EF2416F582EE3406F584
:1004EE0083E0FDA3E0FEA3E0FF8D828E838FF012EA
:1004FE00296042018D828E838FF0E9021EB590062F
:10050E0009E0FFFE8EF005F07401800225E0D5F0C3
:10051E00FBADC64DF5C6EF75F003A4FFAEF0240A91
:10052E00F582EE3406F583E0FBA3E0FCA3E0FD8B41
:10053E00828C838DF0122960FA900607E0F989F01B
:10054E0005F07401800225E0D5F0FBF942028B82A2
:10055E008C838DF0EA121EB5EF2416F582EE34066A
:10056E00F583E0FDA3E0FEA3E0FF8D828E838FF086
:10057E0012296042018D828E838FF0E9021EB5AF83
:10058E0083E582900622F0EFA3F010990280FB9093
:10059E000622E0FEA3E0FF8E998E828F83221098B2
:1005AE000280FBAE997F008E828F8322AF83E5821D
:1005BE00900624F0EFA3F0900624E0FEA3E0FFEEF9
:1005CE004F603505A105A105A105A105A105A10550
:1005DE00A105A105A105A105A105A105A105A105DD
:1005EE00A105A105A105A105A11EBEFF011F900633
:1005FE0024EEF0EFA3F080C7900624EEF0EFA3F008
:10060E0022AF83E582900626F0EFA3F0900626E057
:10061E00FEA3E0FFEE4F601D9003E8C007C0061278
:10062E0005BAD006D0071EBEFF011F900626EEF0BB
:10063E00EFA3F080DF900626EEF0EFA3F022E58226
:10064E0090082FF0E0FF75F003A4FDAEF02429F51D
:10065E0082EE3408F583E4F0ED2429FDEE3408FE35
:10066E008D828E83A3E4F0EF600475E5002275E4BD
:10067E000022C2EA75E28075E3009024477448F0C8
:10068E0090244CE4F0A3F090244E04F0E4A3F0F593
:10069E00D4F5D675E28975D24075D8FF75820012F1
:1006AE00064C75820112064C75E10322E582900814
:1006BE0030F0E5E35480FFE0547F4FF5E322E5820E
:1006CE00900831F0E0600753E2BF53D27F2243E23D
:1006DE004022E582900832F09006287408F0758268
:1006EE00001206BA7582011206CC900832E0FFE0C5
:1006FE00701374FB55E44402F5E490000F12060FDC
:10070E0053E4FD8014BF011174FB55E54402F5E579
:10071E0090000F12060F53E5FD9000FA1205BAC2B3
:10072E00D822E582900833F0E075F003A42429FE68
:10073E00740835F0FF8E828F83E0FDBD01005007F7
:10074E008E828F837401F0900833E0FF7049E5DBF1
:10075E0020E3030207EEE5E420E035E5DB30E21AA4
:10076E00EF75F003A42429FD740835F0FE8D828EFA
:10077E0083A3A3E4F043E4048016EF75F003A424EE
:10078E0029FD740835F0FE8D828E83A3A37401F0CB
:10079E0043E40175820022BF0146E5DB30E741E507
:1007AE00E520E035E5DB30E61AEF75F003A42429E9
:1007BE00FD740835F0FE8D828E83A3A3E4F043E52D
:1007CE00048016EF75F003A42429FE740835F0FF9B
:1007DE008E828F83A3A37401F043E50175820022FC
:1007EE0075821622E582900835F0E075F003A42498
:1007FE0029FE740835F0FF8E828F83A3E0F582C048
:10080E0007C0061206BAD006D0078E828F83A3A326
:10081E00E0F5820206CCE582900839F0900836E0C9
:10082E00FF8FD48FD690083AE4F0A3F0900839E009
:10083E00FEC4540FFDBD0103ED8001E4F50DE4BDD2
:10084E00090104F50E900837E0F9A3E0FA8ED5C23F
:10085E00D9750AC8750B00E50A450B602820D92505
:10086E00900001C007C006C005C002C0011205BA43
:10087E00D001D002D005D006D007150A74FFB50AF4
:10088E0002150B80D275D50020D9047582FE222068
:10089E00D90302099C30DE0475820022E5D9540F7B
:1008AE00F50C740EB50C0474018001E4F50A6007B2
:1008BE007420450CF58222740AB50C047401800173
:1008CE00E4F86033E94A700A7420450CF50D850D85
:1008DE008222C3E994FFEA94FF500519B9FF011A69
:1008EE0090083AE024FFFBA3E034FFFC90083AEBBB
:1008FE00F0ECA3F002099FE50D700CE50E7034BD0F
:10090E000D02800302099830DE0475820022740203
:10091E00B50C0475820022E50A7003E860077420A6
:10092E00450CF58222E50C700302099F7420450CDC
:10093E00F5822230DE0475820022EF6011740BB551
:10094E000C0474018001E424FFE433FC8010740372
:10095E00B50C0474018001E4FB24FFE433FCEC606D
:10096E000475820022E50A7003E860077420450CC6
:10097E00F582227403B50C07740BB50C028012E5D8
:10098E000C600E7420450CF582227582FE2275D8FD
:10099E00FF90000FC007C006C005C002C0011205BF
:1009AE00BAD001D002D005D006D00790083AE02484
:1009BE0001F0A3E03400F090083AE0FBA3E0FCC3A2
:1009CE00EB94C8EC9400500302085B75822022AFB2
:1009DE0083E582900841F0EFA3F0900841E0FEA37A
:1009EE00E0FF900845EEF0EFA3F090083CE0FBA38B
:1009FE00E0FCA3E0FD9000C8C007C006C005C0041F
:100A0E00C0031205BAD003D004D005D006D007EB30
:100A1E004C600E8B828C838DF0E4121EB5A3121ED9
:100A2E00B575D708900836E4F09008377410F07456
:100A3E0027A3F07582D0C007C006C005C004C0034E
:100A4E00120824AA82D003D004D005D006D007EA1B
:100A5E0060038A8222C006C00775D6D075D4D075C1
:100A6E00D701900107E0FA7900900106E0F87F00C7
:100A7E004201EF4202900843E9F0EAA3F0D007D01A
:100A8E0006E94A7003020C8BEE4F7003020C8B903A
:100A9E000100E0FF20E703020B97900843E0FEA35E
:100AAE00E0FF4E7003020B9190012CC007C006C0F0
:100ABE0005C004C0031205BA900836E5D4F09008BC
:100ACE00377410F07427A3F0758290120824AA824E
:100ADE00D003D004D005D006D007EA60038A822264
:100AEE00A9D17A00C3E99EEA9F5006A9D17A008067
:100AFE00048E018F0289067F00900843E0F8A3E080
:100B0E00FA900843E8C39EF0EA9FA3F0EB4C6024F2
:100B1E008B828C838DF0122960F8A3122960FAEE75
:100B2E0028FEEF3AFF8B828C838DF0EE121EB5A35A
:100B3E00EF121EB5900845E0FEA3E0FF7A00C3EA6F
:100B4E0099501CC001EA2EF50FE43FF5108A82750C
:100B5E008300E0850F82851083F00AD00180DF903C
:100B6E000845E0FEA3E0FF900845E92EF0E43FA320
:100B7E00F0E5D1600E900628E0FFC3E5D19F40035B
:100B8E00020AA875D700020C8B900843E0FEA3E082
:100B9E00FF4E7003020C8B9000C8C007C006C00544
:100BAE00C004C0031205BAD003D004D005D006D0BD
:100BBE0007900628E0F97A00C3EE99EF9A50048E5A
:100BCE00018F0289D7900845E0FEA3E0FFE5D72EFE
:100BDE00FEE43FFF900845EEF0EFA3F08E828F8388
:100BEE00A3E0FABA0924900B78E0F97A007401694F
:100BFE007003EA600679017A00800479007A009029
:100C0E000B78E9F08E828F83E9F0900836E5D6F006
:100C1E009008377410F07427A3F0758210C005C0C9
:100C2E0004C003120824AF82D003D004D005EF60B5
:100C3E00038F8222AED77F00900843E0F9A3E0FA3B
:100C4E00900843E9C39EF0EA9FA3F0EB4C700302B9
:100C5E000B978B828C838DF0122960FEA312296074
:100C6E00FFA9D77A00E92EFEEA3FFF8B828C838D97
:100C7E00F0EE121EB5A3EF121EB5020B979000C830
:100C8E001205BAE5D760047F9080027F1090083677
:100C9E0074C0F09008377410F07427A3F08F82128E
:100CAE000824E582FF60038F8222E5D77003F58268
:100CBE0022E5D17003F5822275821722AF83E58279
:100CCE00900848F0EFA3F0900848E0FEA3E0FF90F4
:100CDE000847E0FD7C00C3EC9D50178C027B01ECB5
:100CEE002EF582E43FF583E493F98A828B83F00C30
:100CFE0080E4229006287408F0900847F09029802E
:100D0E00120CCA90083C744AF07408A3F0E4A3F0E5
:100D1E0090083FF07402A3F09006291209DDE582D7
:100D2E00FF60038F8222900630E0900628F0902913
:100D3E0086E493FF90084AE0FDA3E0FE7C00C3ED3D
:100D4E009FEE9C50047582172275820022E58290D8
:100D5E00084CF09008477408F0902998120CCA902D
:100D6E00084CE0FF900102F090083CE4F0A3F0A3E1
:100D7E00F090083FF0A3F0900000C0071209DDAE1E
:100D8E0082D007EE60038E82228F821206BA900006
:100D9E006412060F75820022E58290084DF09008CD
:100DAE00477408F09029A8120CCA90084DE09001E3
:100DBE0002F090083CE4F0A3F0A3F090083FF0A3FB
:100DCE00F09000000209DD9008477408F09029A009
:100DDE00120CCA90083CE4F0A3F0A3F090083FF088
:100DEE007402A3F09006290209DDAF83E582900814
:100DFE0053F0EFA3F0900853E0FEA3E0FF8E828F36
:100E0E0083E07C0024FEFDEC34FFA2E713CD13CD6E
:100E1E008E828F83A3E0FCBC0302800475820022C5
:100E2E00900850E0FBA3E0FCEB24FFF513EC34FF3D
:100E3E00F51490084EE0F515A3E0F516851511850D
:100E4E0016127800C3E89D5063C00588047D00C368
:100E5E00EC9513ED9514D0055052C00588037C0017
:100E6E00EB2BFBEC33FC74032BFAE43CFDEA2EFA7D
:100E7E00ED3FFD8A828D83E0D005600FE82511F5E8
:100E8E0082E43512F583743FF0801EE82515F9E4EF
:100E9E003516FA74022BFBE43CFCEB2EF582EC3F8C
:100EAE00F583E0FC89828A83F0088098E82515F5A1
:100EBE0082E43516F583E4F07F00900852E0FE0ED2
:100ECE00900B1CEDF0EFA3F0900B1EEEF0900B1FAD
:100EDE007434F0900B207456F0900B21E515F0E56C
:100EEE0016A3F0758205121CDC75820122AF83E514
:100EFE0082900855F0EFA3F0900855E0FEA3E0FFB6
:100F0E007C007D008E828F83E0FB7A00C3EC9BED2C
:100F1E0064808AF063F08095F050070CBC00E50DFC
:100F2E0080E2229008477408F0902988120CCA902B
:100F3E00083C7457F07408A3F0E4A3F090083FF057
:100F4E007402A3F09006291209DDE582FF60038F7B
:100F5E00822290298EE493FF900857E0FDA3E0FED5
:100F6E007C00C3ED9FEE9C50047582172290062BD9
:100F7E00E0FF7E0090062CE0FCE42FFFEC3EFE909E
:100F8E0008477408F0902988C007C006120CCAD012
:100F9E0006D0078F048E05900106ECF08E079001A7
:100FAE0007EFF090083C7457F07408A3F0E4A3F038
:100FBE0090083FF07402A3F09006291209DDE58235
:100FCE00FF60038F8222758200229008477408F01A
:100FDE00902990120CCA90083C7459F07408A3F032
:100FEE00E4A3F090083FF07402A3F09006290209E2
:100FFE00DDE5829008BBF0E0FF75F010A4FDAEF0C9
:10100E00249BF582EE3408F583E4F0A3F0A3F0A35D
:10101E00F0ED249BFDEE3408FE8D828E83A3A3A3F8
:10102E00A3E4F0A3F0A3F0A3F074082DF582E43E40
:10103E00F583E4F0A3F0A3F0A3F0740C2DF582E495
:10104E003EF583E4F0A3F0A3F0A3F07E00EE75F07E
:10105E0008A4245BFC740835F0FD74012CFAE43D01
:10106E00FB8A828B83E0B507298C828D83E4F08A1C
:10107E00828B83F08C828D83A3A3F08C828D83A3CD
:10108E00A3A3F08C828D83A3A3A3A3F0A3F0A3F05C
:10109E00A3F00EBE080040B5227F00EF75F008A445
:1010AE00FDAEF0245BFBEE3408FC8B828C83E0708B
:1010BE00030211EDED245BFDEE3408FE8D828E836E
:1010CE00A3E0FC900834E4F08C82C007C006C00593
:1010DE001207F2D005D006D0078D828E83A3A3A36C
:1010EE00E0FE747F5E4490FDEE30E7067CC07E002D
:1010FE0080047C007E00900836ECF0900837E4F017
:10110E00A3F08D82C007120824E582D00760030287
:10111E0011EDEF75F008A4245BFD740835F0FE7434
:10112E00032DFBE43EFC8B828C83E0F96301808B04
:10113E00828C83E9F09008BCE5D1F0E0FAE0700310
:10114E000211EDB2968A017A008D828E83A3A3A33B
:10115E00A3E0F88B828C83E0FB53037F8D828E831A
:10116E00A3E075F010A4FEADF0249BF582ED3408DB
:10117E00F583E0F517EE249BFEED3408FD8E828D8F
:10118E0083A3A3A3A3E0F51874082EF582E43DF51E
:10119E0083E0FC740C2EF582E43DF583E0FE900BAB
:1011AE0023E9F0EAA3F0900B25E8F0900B26EFF080
:1011BE00900B27EBF0900B287400F07400A3F090C6
:1011CE000B2AE517F0900B2BE518F0900B2CECF09A
:1011DE00900B2DEEF0758204C007121CDDD0070FA8
:1011EE00BF080050030210A922AF83E5829008C009
:1011FE00F0EFA3F09008C2E4F0A3F09008C4F090D2
:10120E0008C5F09008C0E0F537A3E0F538AC37AD6F
:10121E00389008BFE075F008A4245BFA740835F026
:10122E00FB9008BDE0F535A3E0F5369008C2E0F579
:10123E0031A3E0F532C3E5319535E53295364001FF
:10124E0022C002C003E5312537F582E5323538F587
:10125E0083E0FB9008C674FC5BF074035BF5319081
:10126E0008C7F09008C8E4F0A3F0A3F0A3F074034D
:10127E00B531028006D003D002800BD003D002908D
:10128E0008C7E53104F0C002C0039008C2E0FAA31B
:10129E00E0FB74012AF531E43BF5329008C7E0F526
:1012AE0033753400D003D002C3E53495335054C0A7
:1012BE0002C003AA347B00EA2531FAEB3532FBEA91
:1012CE002CF582EB3DF583E0F8E4F9FAFBE534C446
:1012DE000354F8FF8FF005F0800CE828F8E933F995
:1012EE00EA33FAEB33FBD5F0F19008C8E048F0A3EF
:1012FE00E049F0A3E04AF0A3E04BF00534D003D070
:10130E000280A59008C4E0FF9008C6E0FEE4BEC0CF
:10131E000104F53479008F31753200E534600875BB
:10132E003901753A008005E4F539F53AC002C0037B
:10133E00E531C39539F8E532953AFB89027E00C353
:10134E00EA98EE64808BF063F08095F0D003D002C3
:10135E0050030980C19008C6E0FFBF04028063BF3E
:10136E000803021414BF14030214F8BF1803021466
:10137E00F8BF24030214F8BF28030214F8BF340385
:10138E000214F8BF44030214F8BF64030214F8BF3A
:10139E0074030214F8BF80030214F8BF840302140E
:1013AE00F8BF90030214F8BF94030214F8BFA00311
:1013BE000214E9BFB0030214F8BFC0030214F20214
:1013CE0014F89008C8E0F8A3E0F9A3E0FEA3E0FF4C
:1013DE00C3E994FFEE9400EF94004008780079FF83
:1013EE007E007F00B8010CB90009BE0006BF0003E5
:1013FE000214F8B8070CB90009BE0006BF0003D3EB
:10140E008001C30214F89008C5E07032C004C00514
:10141E0074042AFEE43BFF9008C8E0F8A3E0F9A3A9
:10142E00E0FCA3E0FD8E828F83E8F0E9A3F0ECA34D
:10143E00F0EDA3F09008C57401F0D005D00490082B
:10144E00C8E0F8A3E0F9A3E0FEA3E0FFC374389868
:10145E00E499E49EE49F50030214F8E8240A83F50D
:10146E0082E8243D83F583E473F8F8F8F8F8F8F889
:10147E00F8F8F8F8F8F8F8F8F8F8F8F8F8F8F8F8DE
:10148E00F8F8F8F8F8F8F8F8F8F8F8F8F8F8F8F8CE
:10149E00F8F8F8F8F8F8F8F8F8F8F8F8F8F8F8F8BE
:1014AE00F8F8141414141414141414141414141426
:1014BE0014141414141414141414141414141414DE
:1014CE0014141414141414141414141414141414CE
:1014DE0014141414141414141414149008C4E024C2
:1014EE0001F080069008C4E014F09008C7E0FF7E7B
:1014FE00000FBF00010E9008C2E0F8A3E0F99008BB
:10150E00C2EF28F0EE39A3F0021239E5829008CC32
:10151E00F09008477408F09029B0120CCA9008CCCD
:10152E00E075F008A4245BFE740835F0FF74022EFB
:10153E00FEE43FFF8E828F83E0900104F090083C22
:10154E0074CDF07408A3F0E4A3F090083FF0A3F07C
:10155E00900629C007C0061209DD9008477408F0EE
:10156E009029B8120CCAD006D0078E828F83E090D5
:10157E000104F0900106E4F09001077402F0900867
:10158E003C74CDF07408A3F0E4A3F090083FF0741F
:10159E0002A3F09006291209DDE582FF60038F8217
:1015AE00227E007F009008CDE0FCA3E0FDC3EE9C00
:1015BE00EF9D50070EBE00ED0F80EA9008CCE0FFC5
:1015CE0075F008A4245BFB740835F0FE8B828E83C5
:1015DE00A3A3E0FA8B828E83A3E0FE900B1CECF0AB
:1015EE00EDA3F0900B1EEFF0900B1FEAF0900B2086
:1015FE00EEF0900B217429F07406A3F0758207C0EB
:10160E0007121CDCD0079008CDE0FDA3E0FE900889
:10161E00BDEDF0EEA3F09008BFEFF0900629121189
:10162E00F775820022222222E5829008D3F09008DC
:10163E00D4E4F09008D3E0FFFE75F003A4F519850D
:10164E00F01A8F1E751D00900064C007C0061206AA
:10165E000F90006412060F851E82120FFF851E82E8
:10166E001206E0D006D0077900900001C007C00630
:10167E00C00112060FD001D006D0078F82C007C05E
:10168E0006C001120730E582D001D006D0076006F1
:10169E0009B9640040D3B964108F82C007C0061226
:1016AE00064CD006D007021AF69008D3E0F990083F
:1016BE0034E4F08982C007C006C0011207F2120D91
:1016CE0001A882D001D006D0079008D4E8F0E860D7
:1016DE0003021AADC006E975F010A4F8AEF0249B13
:1016EE00F51BEE3408F51C900631E0FA7B007C0009
:1016FE007D00851B82851C83EAF0EBA3F0ECA3F042
:10170E00EDA3F0E8249BF8EE3408FE740428F51BD4
:10171E00E43EF51C900632E0FA7B007C007D0085ED
:10172E001B82851C83EAF0EBA3F0ECA3F0EDA3F093
:10173E00740828F51BE43EF51C900633E0FA7B0096
:10174E007C007D00851B82851C83EAF0EBA3F0EC08
:10175E00A3F0EDA3F0740C28F8E43EFE900634E0FE
:10176E00FD7C007B007A0088828E83EDF0ECA3F086
:10177E00EBA3F0EAA3F0900629C007C006C0011241
:10178E000EFBD001D00690299AE49329F51B851BF8
:10179E0082C001120D5BAE82D001D0079008D4EE4C
:1017AE00F0EED0066003021AADE975F003A4242909
:1017BE00FC740835F0FD8C828D83A3E51BF0C00709
:1017CE00C006C001120DD5900629120EFBD0019055
:1017DE00084E7429F07406A3F0900850E4F07402D9
:1017EE00A3F0900852E9F0900629C001120DF812EC
:1017FE000F31AD82D001D006D0079008D4EDF0EDB8
:10180E006003021AAD90062BE0FD7C0090062CE0E2
:10181E00FA7B00900B1CEB2DF0EA3CA3F009900B29
:10182E001EE51BF0900B1FE9F0900B2074AAF090B0
:10183E000B217429F07406A3F0758206121CDC903D
:10184E000AD7E4F0A3F07C007D0090062BE0FB7A33
:10185E000090062CE0F9E42BFBE93AFAC3EC9BED81
:10186E009A50070CBC00E30D80E090062EE0F58246
:10187E00120DA690062BE0FD7C0090062CE0FAE4FB
:10188E002DFDEA3CFC8D028C0378007900C3E89AAA
:10189E00E99B502BC005C004E824D7F51BE934089A
:1018AE00F51CE82429F582E93406F583E0851B82D0
:1018BE00851C83F008B8000109D004D00580CE90B5
:1018CE000629E0FB9008D5F0E4A3F09008D3E0F5EC
:1018DE0021AA218D1F8C209008D5E0F8A3E0F9C332
:1018EE00E8951FE995204003021AA9E824D7F8E9E4
:1018FE003408F9900AD9E8F0E9A3F088828983A325
:10190E00E0F51B7404B51B0280227405B51B028022
:10191E003B7421B51B03021A2E7424B51B03021A45
:10192E005F7425B51B03021A6C021A7988048905A7
:10193E00900AD7ECF0EDA3F09008CFECF0EDA3F009
:10194E008A82C002121633D002021A84C002888222
:10195E008983C002C001C000120EFBD000D001D09E
:10196E0002900AD7E0FAA3E0FD8A828D83A3A3A397
:10197E00A3A3E0FDBD03028005D002021A848804F1
:10198E00890574022CF522E43DF5238522828523F8
:10199E0083E0D00220E703021A84751B00C002E523
:1019AE001B75F008A4245BFA740835F0FB8A828B51
:1019BE0083E0D0026008051B74F8251B50DFC002BF
:1019CE00E51B75F008A4245BFA740835F0FB74036C
:1019DE002AF524E43BF525852282852383E08524A0
:1019EE0082852583F08A828B837401F0042AF52484
:1019FE00E43BF525900AD7E0FCA3E0FD8C828D83B5
:101A0E00A3A3E0852482852583F08A828B83A3E5B8
:101A1E0021F0851B82C002121519D002D002805609
:101A2E00900AD7E0FCA3E0FD900AD7E0F5F0A3E022
:101A3E0045F06042C002880289039008D1EAF0EBBB
:101A4E00A3F08C828D83C002121634D002D0028095
:101A5E002588828983C002120EFBD00280188882EC
:101A6E008983C002120EFBD002800B88828983C04C
:101A7E0002120EFBD002900AD9E0FCA3E0FD8C828C
:101A8E008D83E0FC7D009008D5E0F9A3E0FB900883
:101A9E00D5EC29F0ED3BA3F00218E5758200228EFD
:101AAE00050D9008D4E0FC900B1CE4F0A3F0900B15
:101ABE001EEDF0900B1FECF0900B2074EEF0900BDF
:101ACE0021E4F0A3F0758203C007C006121CDCE50A
:101ADE00192429F582E51A3408F5837402F075820B
:101AEE00011206CCD006D007051D74F6251D400345
:101AFE000216559008D4E0F58222900ADBE4F0102D
:101B0E00D803021C2BE5DB30E349900829E060087E
:101B1E00E5E430E003021B9E75820012064C90082D
:101B2E00297401F0900B1CE4F0A3F0900B1E04F04E
:101B3E00900B1FF0900B20F0900B21E4F0A3F075AA
:101B4E008201121CDC758200121636E582900ADBC9
:101B5E00F0803D900829E0FFBF0100403375820000
:101B6E00120FFF75820012064C900B1CE4F0A3F0CE
:101B7E00900B1E04F0900B1FF0900B20F0900B2199
:101B8E00E4F0A3F0758202121CDC900ADB7416F0EE
:101B9E00E5DB30E74A90082CE06008E5E530E0032D
:101BAE00021C2B75820112064C90082C7401F090C9
:101BBE000B1CE4F0A3F0900B1E7402F0900B1FF0C0
:101BCE00900B20F0900B21E4F0A3F0758201121C13
:101BDE00DC758201121636E582900ADBF0803E90AB
:101BEE00082CE0FFBF01004034758201120FFF7513
:101BFE00820112064C900B1CE4F0A3F0900B1E74A5
:101C0E0002F0900B1FF0900B20F0900B21E4F0A34C
:101C1E00F0758202121CDC900ADB7416F0900ADB5F
:041C2E00E0F5822239
:102980008006000100001200800600020000120014
:10299000810600040000090000050200000000009C
:1029A0008006020309040204000900000000000080
:1029B000210A000000000000810600220000FF0044
:0129D5000001
:07006700900B2FE4F0A3F061
:101C320010980122900B79E024DCF582E4340AF555
:101C420083E599F0900B79E0FF24DCF582E4340A15
:101C5200F583E0FEBE0A028008BF40005003021C6A
:101C6200D37E00900B79E0FDC3EE9D502EEE24DC76
:101C7200F582E4340AF583E0FD7C00C006C005C0AD
:101C82000474C0C0E07429C0E07480C0E0121F1E5A
:101C9200E58124FBF581D0060E80C874C8C0E074CB
:101CA20029C0E07480C0E0121F1E158115811581C4
:101CB200900ADCE0FEBE6B11900ADDE0FEBE620916
:101CC200850882850983120006900B79E4F0021CD4
:101CD20032900B79EF04F0021C3222E582900B2E37
:101CE200F0900B2FE0FEA3E0FF900B2F74012EF07B
:101CF200E43FA3F0EE540760012290006C12058DC0
:101D020090007512058D90006E12058D900069127B
:101D1200058D900B23E0FEA3E0FF8E828F83C00728
:101D2200C00612058DD006D0078F057C008D828CEF
:101D320083C007C00612058D900B2EE0FD7C008D3E
:101D4200828C8312058D900B25E0FD7C008D828CA8
:101D52008312058D900B26E0FD7C008D828C831210
:101D6200058D900B27E0FD7C008D828C8312058D02
:101D7200D006D007900B28E0FCA3E0FD7A007B00A0
:101D8200C3EA9EEB9F5032EA2CF582EB3DF583E0ED
:101D9200F8790088828983C007C006C005C004C0E4
:101DA20003C00212058DD002D003D004D005D006A4
:0F1DB200D0070ABA00CA0B80C790000A02058D3D
:0A29C00030782530325820000A005C
:0129D6000000
:101DC100AF82AE83ADF0FC900B35EFF0EEA3F0EDFA
:101DD100A3F0ECA3F0900B39E4F0A3F0A3F0A3F08F
:101DE100900B31E0FCA3E0FDA3E0FEA3E0FF7B202C
:101DF100C003900B35E0F8A3E0F9A3E0FAA3E0FB00
:101E0100900B3D235401F0E828F8E933F9EA33FA5D
:101E1100EB33FB900B35E8F0E9A3F0EAA3F0EBA379
:101E2100F0900B39E0F8A3E0F9A3E0FAA3E0FBE8B6
:101E310028F8E933F9EA33FAEB33FB900B39E8F090
:101E4100E9A3F0EAA3F0EBA3F0D003900B3DE0602F
:101E510008900B39E043E001F0900B39E0F531A334
:101E6100E0F532A3E0F533A3E0F534C3E5319CE5B9
:101E7100329DE5339EE5349F401F900B39E531C318
:101E81009CF0E5329DA3F0E5339EA3F0E5349FA3DA
:101E9100F0900B35E043E001F01BEB6003021DF114
:101EA100900B35E0FCA3E0FDA3E0FEA3E08C828D66
:041EB100838EF0220A
:06003700E478FFF6D8FD9D
:100015007902E94400601B7A019029D5787875A0AA
:100025000BE493F2A308B8000205A0D9F4DAF2753F
:02003500A0FF2A
:101EB50020F71130F6138883A88220F509F6A88348
:0B1EC5007583002280FEF280F5F02201
:10003D007800E84400600A790075A006E4F309D859
:10004D00FC7878E84405600C7906900600E4F0A38E
:04005D00D8FCD9FAF8
:02000600E473A1
:101ED000C0308581307E008E8312058DD03022AFD8
:101EE000F0AE83E582900B40F0EEA3F0EFA3F0900C
:101EF0000B40E0FDA3E0FEA3E0FF900B3FE0FC9071
:101F00000B54E4F0A3F0A3F0900B57EDF0EEA3F028
:101F1000EFA3F0900B5AECF0901ED0022027C030B7
:101F2000E581F53024FBFF900B54E4F0A3F0A3F01F
:101F3000E53024FBF8900B57E6F008E6A3F008E63E
:101F4000A3F0900B5AEFF0901ED0122027D0302231
:101F5000E582900B50F0E0FF900B46E0C0E0A3E07C
:101F6000C0E0A3E0C0E0121F6B800D900B44E0C006
:101F7000E0A3E0C0E08F8222158115811581900BCE
:101F80004EE02401F0A3E03400F022E582900B51F2
:101F9000F0E02430FF24C6500D74072FFF900B4350
:101FA000E060034307208F82021F50E582900B52AE
:101FB000F0E0FFC4540FF582C007121F8BD0075307
:101FC000070F8F82021F8BE582900B53F0900B4915
:101FD000E0FCA3E0FDA3E0FEA3E0FF900B4DE0FBDF
:101FE000753120900B53E0F98B00E828F8EF23546B
:101FF0000148FBEC2CFCED33FDEE33FEEF33FFC369
:10200000EB994007EBC399FB430401E53114FA8ACD
:102010003170D5900B49ECF0EDA3F0EEA3F0EFA3F7
:10202000F0900B4DEBF022AF83E582900B5BF0EF6D
:10203000A3F0900B5BE0FEA3E0FF900B44EEF0EF0B
:10204000A3F0900B54E0FDA3E0FEA3E0FF900B464D
:10205000EDF0EEA3F0EFA3F0900B4EE4F0A3F090C0
:102060000B57E0FDA3E0FEA3E0FF8D828E838FF08F
:10207000122960FC900B5774012DF0E43EA3F0EFA1
:10208000A3F0EC700302291CBC2502800302291472
:10209000900B5DE4F0900B5EF0900B5FF0900B60A6
:1020A000F0900B61F0900B62F0900B63F0900B647A
:1020B000F0900B66F0900B67F0A3F0900B6914F0B2
:1020C000A3F0900B57E0FDA3E0FEA3E0FF8D828E0E
:1020D000838FF0122960FBA3AD82AE83900B57ED86
:1020E000F0EEA3F0EFA3F0900B6DEBF0BB25088BA7
:1020F00082121F5002205FBB300050030221C0EB50
:1021000024C650030221C0900B69E0F526A3E0F538
:102110002774FFB52663B52760C005C006C00790C9
:102120000B67E0FAA3E0FF900B76EAF0EFA3F090E4
:10213000000AC005C003122940AE82AF83D003D08D
:10214000058B027D00EA2EFEED3FFFEE24D0FEEF70
:1021500034FFFF900B67EEF0EFA3F0D007D006D06E
:1021600005900B67E0F5F0A3E045F060030220CD99
:10217000900B5E7401F00220CDC005C006C0079030
:102180000B76E526F0E527A3F090000AC006C0050F
:10219000C003122940AA82AF83D003D005D0067EA7
:1021A00000EB2AFAEE3FFFEA24D0FAEF34FFFF906B
:1021B0000B69EAF0EFA3F0D007D006D0050220CDDE
:1021C000900B6DE0FBBB2E2FC005C006C007900B27
:1021D00069E0FAA3E0FFBAFF05BFFF028009D0075C
:1021E000D006D0050220CDD007D006D005900B69CF
:1021F000E4F0A3F00220CDBB61004014EB24854045
:102200000F900B6D74DF5BF0900B437401F0800551
:10221000900B43E4F0900B6DE0FBBB20028075BB9C
:102220002B028067BB2D028059BB4202806FBB43EB
:1022300002807CBB44030224B7BB46030224DDBBFF
:1022400048030220CDBB49030224B7BB4A03022046
:10225000CDBB4C028050BB4F030224C5BB500302D0
:102260002425BB53028077BB54030220CDBB55030A
:102270000224CDBB58030224D5BB5A030220CD0251
:1022800024E5900B5D7401F00220CD900B5F74018A
:10229000F00220CD900B607401F00220CD900B6213
:1022A0007401F00220CD900B637401F00220CD90F8
:1022B0000B62E0600E900B5AE014F9F0900B6DE7A2
:1022C000F0800F900B5AE024FEFFF08F01900B6D11
:1022D000E7F0900B6DE0F582121F500224F4900B92
:1022E0005AE024FDFFF08F0187050987060987075B
:1022F0001919900B49EDF0EEA3F0EFA3F08D828E4B
:10230000838FF0122928858226858327900B69E028
:10231000FAA3E0FDBAFF0DBDFF0A900B69E526F0B8
:10232000E527A3F0900B5DE0704B900B67E0FAA3FC
:10233000E0FDC3E5269AE5279D503A900B67EAC376
:102340009526F0ED9527A3F0900B67E0FAA3E0FD4A
:102350008A068D071ABAFF011DEE4F6010758220A4
:10236000C005C002121F50D002D00580E3900B6759
:10237000EAF0EDA3F0900B69E0F529A3E0F52A90CF
:102380000B49E0FAA3E0FDA3E0FF8A828D838FF082
:10239000122960F528603CC3E495297480852AF0F1
:1023A00063F08095F0502C152974FFB52902152A89
:1023B000852882121F50900B49E0FAA3E0FDA3E0AC
:1023C000FF0ABA00010D900B49EAF0EDA3F0EFA36C
:1023D000F080AC900B5DE070030224F4900B67E09A
:1023E000FEA3E0FFC3E5269EE5279F40030224F4F9
:1023F000900B67EEC39526F0EF9527A3F0900B673F
:10240000E0FEA3E0FF8E028F051EBEFF011FEA4D16
:1024100070030224EC758220C007C006121F50D042
:1024200006D00780E0900B5AE024FDFDF08D018777
:102430002B09872C09872D1919900B49E52BF0E5FD
:102440002CA3F0E52DA3F0900B4BE0FDBD800040E8
:1024500008900B6D7443F08020BD60004008900B25
:102460006D7450F08013BD40004008900B6D7449AE
:10247000F08006900B6D7458F0900B6DE0FDF582C6
:10248000C005121F5075823A121F50758230121FFC
:1024900050758278121F50D005BD4902800EBD5084
:1024A000028009900B4AE0F582121FAB900B49E0C5
:1024B000F582121FAB803D900B617401F0900B66AA
:1024C000740AF0802F900B667408F08027900B66DA
:1024D000740AF0801F900B667410F08017900B64E4
:1024E0007401F0800F8B82121F508008900B67EEF2
:1024F000F0EFA3F0900B64E06071900B5AE024FCC5
:10250000FFF08F01870309870509870609870719E7
:102510001919900B49EBF0EDA3F0EEA3F0EFA3F047
:10252000900B4974CAF07429A3F07480A3F0900B47
:1025300049E0F52BA3E0F52CA3E0F52D7401252B44
:10254000FAE4352CFBAF2D900B49EAF0EBA3F0EF4A
:10255000A3F0852B82852C83852DF0122960FF70D6
:102560000302205F8F82121F5080C3900B66E070C1
:102570000302205F900B62E06047900B5AE014F971
:10258000F087077E007D007B00900B49EFF0EEA303
:10259000F0EDA3F0EBA3F0900B61E06003022637AF
:1025A000900B49E0FBA3E0A3E0A3E07D007E007F69
:1025B00000900B49EBF0EDA3F0EEA3F0EFA3F08059
:1025C00076900B63E06028900B5AE024FCFFF08FBC
:1025D00001870309870509870609870719191990D3
:1025E0000B49EBF0EDA3F0EEA3F0EFA3F0804890E1
:1025F0000B5AE024FEFFF08F01870609870719EFC9
:102600003395E0FDFB900B49EEF0EFA3F0EDA3F066
:10261000EBA3F0900B61E0701E900B49E0FBA3E090
:10262000FDA3E0A3E07E007F00900B49EBF0EDA35B
:10263000F0EEA3F0EFA3F0900B61E06041900B4946
:10264000E0FBA3E0FDA3E0FEA3E0FF30E72B900B4F
:1026500049E0FBA3E0FDA3E0FEA3E0FFC3E49BFB96
:10266000E49DFDE49EFEE49FFF900B49EBF0EDA39B
:10267000F0EEA3F0EFA3F08005900B61E4F0900B77
:10268000657401F0900B66E0F529752E73752F0BBC
:10269000E4F526F527900B4DE4F0852982121FC73B
:1026A000900B65E07026900B4DE0C4F52B852E82D3
:1026B000852F83E0FFE52B4207852E82852F83EF50
:1026C000F0152E74FFB52E02152F800C900B4DE0E7
:1026D000FF852E82852F83F00526E4B52602052787
:1026E000900B65E0B40100E433F0900B49E0FAA3ED
:1026F000E0FBA3E0FEA3E0FFEA4B4E4F7097900B88
:1027000074E52EF0E52FA3F0900B6BE526F0E5279E
:10271000A3F0900B67E0F5F0A3E045F07009900B93
:10272000677401F0E4A3F0900B5EE0FFE070479067
:102730000B5DE0704185262E85272F900B67E0FA10
:10274000A3E0FBC007AF2E0F8F067F00C3EE9AEF0A
:102750009BD0075019758220C007C003C002121F0A
:1027600050D002D003D0071ABAFF011B80D5900BBE
:1027700067EAF0EBA3F0900B61E0602075822DC05A
:1027800007121F50D007900B67E024FFFDA3E03431
:10279000FFFE900B67EDF0EEA3F08056900B6BE020
:1027A000F5F0A3E045F0604A900B5FE06020758291
:1027B0002BC007121F50D007900B67E024FFFDA32A
:1027C000E034FFFE900B67EDF0EEA3F08024900B59
:1027D00060E0601E758220C007121F50D007900B6A
:1027E00067E024FFFDA3E034FFFE900B67EDF0EE01
:1027F000A3F0900B5DE07048900B6BE0F52EA3E02A
:10280000F52F900B67E0FAA3E0FBC0078A068B0761
:102810001ABAFF011BC3E52E9EE52F9FD007505328
:10282000EF60067D307E0080047D207E008D82C0BA
:1028300007C003C002121F50D002D003D00780CAC5
:10284000900B67E0FEA3E0FF900B6BE0F52EA3E09A
:10285000F52FC3E52E9EE52F9F500F900B67EEC31B
:10286000952EF0EF952FA3F08011900B67E4F0A365
:10287000F08008900B67EAF0EBA3F0900B74E0FE99
:10288000A3E0FF900B6BE0F52EA3E0F52FAA2EAD91
:102890002F152E74FFB52E02152FEA4D6045900BB3
:1028A00065E0B40100E433F0900B65E070140EBEF7
:1028B00000010F8E828F83E0C4540FFD900B4DF00A
:1028C000800E8E828F83E0FD53050F900B4DEDF04F
:1028D000900B4DE0F582C007C006121F8BD006D0CA
:1028E0000780AA900B5DE0700302205F900B67E009
:1028F000FEA3E0FF8E038F051EBEFF011FEB4D7090
:102900000302205F758220C007C006121F50D00648
:10291000D00780E08C82121F5002205F900B4EE0A7
:08292000FEA3E08E82F5832284
:0B29CA003C4E4F20464C4F41543E0055
:10292800AA82AB831229606003A380F8C3E5829A68
:10293800F582E5839BF58322AA83AB828BF0900B0B
:1029480076E0A4F8A9F08AF0E0A429F98BF0A3E0D6
:08295800A429F58388822222E4
:0D00080075813A12297CE582600302000335
:1029600020F71430F6148883A88220F507E6A883A0
:1029700075830022E280F7E49322E0227582002230
:00000001FF
